:020000040800F2
:100000000020002021590008554B000869590008BC
:100010006959000869590008695900080000000082
:100020000000000000000000000000006959000806
:100030006959000800000000695900088143000860
:100040006959000869590008000000006959000852
:1000500069590008ED490008695900086959000804
:100060000000000069590008695900086959000832
:100070006959000869590008695900086959000858
:1000800069590008000000000000000069590008DC
:10009000000000006959000869590008054A000875
:1000A00000000000695900086959000869590008F2
:1000B00039410008000000000000000000000000BE
:1000C0000000000000000000000000000000000030
:1000D0000000000000000000000000005FF808F1D0
:1000E000054B0648033310B51B1A062B03D9044BE6
:1000F000002B00D0984710BDA4050020A4050020C7
:10010000000000000648074910B5091A8910CB0FF6
:100110005918491003D0044B002B00D0984710BD4C
:10012000A4050020A40500200000000010B5074C25
:100130002378002B09D1FFF7D3FF054B002B02D00A
:10014000044800E000BF0123237010BDA405002077
:1001500000000000E0000008094B10B5002B03D0A0
:100160000849094800E000BF08480368002B02D195
:10017000FFF7C8FF10BD064B002BF9D09847F7E7F3
:1001800000000000A8050020E0000008A4050020F1
:100190000000000070B505000C0004F031F92020CB
:1001A0000121284304F006F90121200004F002F99E
:1001B00004F034F970BDC04670B505000C0004F0C1
:1001C0001FF92800012104F0F5F80021FF2004F0B8
:1001D000F1F8207004F022F970BDC04610B504009B
:1001E00004F00EF90121502004F0E4F80121200070
:1001F00004F0E0F804F012F910BDC04670B5060036
:100200000C00150004F0FCF820200121304304F01C
:10021000D1F8002D0FD0013DEDB2013565192078E0
:10022000012104F0C7F801340600AC42F7D104F014
:10023000F5F8300070BD0026F9E7C04670B506003D
:100240000C00150004F0DCF83000012104F0B2F8D5
:100250000600002D0BD0013DEDB2013565190021DE
:10026000FF2004F0A7F820700134AC42F7D104F06D
:10027000D5F8300070BDC04610B5272803D801005E
:100280000120FFF787FF10BD00B583B06A460378F1
:10029000694613704378537083789370C3780C2049
:1002A000D3700422FFF7AAFF03B000BD00B583B0EE
:1002B0006A460378694613704378537083780D203B
:1002C00093700322FFF79AFF03B000BD00B585B01D
:1002D00001AA10801F2202A9031C000A13404870C3
:1002E0001D3A05200B70FFF789FF05B000BDC04621
:1002F00010B50A000100A020FFF780FF10BDC04626
:1003000010B5FFF7F5FF10BD00B585B002A901AA31
:1003100010800870000A487002220320FFF76EFF69
:1003200005B000BD30B583B06B460500DC1D210073
:100330000E20FFF741FF21780E202970FFF72AFFDA
:1003400003B030BD00B583B06A46FF235070137010
:10035000694602220E20FFF751FF03B000BDC046E0
:1003600010B501000E20FFF715FF10BD10B582B0CB
:100370000C000222694600280CD00620FFF75EFF21
:100380006B46197821705A78034B627019705A7055
:1003900002B010BD0430F1E7C005002010B50C001C
:1003A00000280ED1254B59781B78881C10700F221D
:1003B000237061701340062B0DD8214A9B00D3583F
:1003C0009F464B78991C1170002B04D0A11C1A0079
:1003D0006120FFF733FF10BD2229FCD1A11C0622AA
:1003E0000B20FFF72BFF2100062208310A20FFF720
:1003F00025FF210016220E316120FFF71FFFEAE7DB
:100400000C29E8D12100062208310A20FFF716FF47
:10041000E1E70C29DFD1A11C06220A20FFF70EFF1D
:100420002100062208310B20FFF708FFD3E7A11CAB
:1004300006220B20FFF702FFCDE7C046C0050020D3
:100440002466000830B583B005000C00062269461A
:100450001020FFF7F3FE6B465B791A046B461B799D
:100460001B02D3186A46D2789B182B606B469B7888
:100470001A046B465B781B02D3186A4612789B18E5
:10048000236003B030BDC04630B583B001AC050079
:10049000032221001020FFF7D1FEA3781A0463780D
:1004A0001B02D31822789B182B6003B030BDC046C6
:1004B00000B583B06A4602231370FD335370937006
:1004C000D370694604220F20FFF798FE03B000BDE9
:1004D00010B501210F20FFF75DFE10BD00B583B000
:1004E0006A46002350701370030A000C9370D0709A
:1004F000694604220F20FFF781FE03B000BDC0460D
:1005000010B504280FD0012812D0022815D00328D6
:1005100017D005281AD0062800D010BD04210438B1
:10052000FFF738FEF9E702210238FFF733FEF4E760
:1005300009210130FFF72EFEEFE70C21FFF72AFE1D
:10054000EBE701210138FFF725FEE6E70321033839
:10055000FFF720FEE1E7C04600B583B06B466A4670
:100560001870030A000C537090706946032207202C
:10057000FFF744FE03B000BD00B583B06B466A468A
:100580001870030A5370084B984209D901236A4630
:100590009370032269461120FFF730FE03B000BDBF
:1005A00000239370F5E7C046FFFF0000F0B504009C
:1005B00083B05120FFF712FE5620FFF70FFE6B4667
:1005C000E0782179627927786678A5781F705E7067
:1005D0009D70D87019715A71064BD87019715A7183
:1005E0006946062208201F705E709D70FFF706FEA8
:1005F00003B0F0BD400B002000B583B002221849C3
:1006000001A803F039FB5120FFF7E8FD7821002015
:10061000FFF7C0FD5320FFF7E1FD18211D20FFF774
:10062000B9FD8E211720FFF7B5FD8C211820FFF7AB
:10063000B1FD8C211920FFF7ADFD01211520FFF739
:10064000A9FD022201A91320FFF7D8FDA0211E2039
:10065000FFF7A0FD5620FFF7C1FD03B000BDC04667
:100660004066000800B51D4983B00222043101A88C
:1006700003F002FB5120FFF7B1FD7A210020FFF7C4
:1006800089FD5320FFF7AAFD00211520FFF782FD09
:100690001E211D20FFF77EFD114BC046C046C046FF
:1006A000013B002BF9D1022201A91320FFF7A6FD7F
:1006B00020211E20FFF76EFD88211720FFF76AFD1D
:1006C00088211820FFF766FD88211920FFF762FDB9
:1006D0005620FFF783FD03B000BDC046406600080A
:1006E00088130000F8B5742706000D0014007F423F
:1006F0003E435320FFF772FD3D43F1B21720FFF751
:1007000049FD3C43E9B21820FFF744FDE1B219204E
:10071000FFF740FD5620FFF761FDF8BD30B505003D
:1007200083B051200C00FFF759FD5320FFF756FD11
:100730000C2328011843802301A95B4208701C4345
:10074000022214204C70FFF759FD5620FFF746FD9A
:1007500003B030BD0020704700B583B06A4603780F
:10076000694613704378537083789370C378D3705D
:10077000037913714379092053710622FFF73EFD77
:1007800003B000BD022300B583B001A94870022266
:100790000F200B70FFF732FD03B000BD30B55320C2
:1007A00083B0FFF71BFD03211F20FFF7F3FC6B460F
:1007B000DC1C21001F20FFF7FFFC2378002BF8D161
:1007C00003211F20FFF7E6FC21001F20FFF7F4FCA8
:1007D0002378002BF8D101211520FFF7DBFCA021A5
:1007E0001220FFF7D7FC04210A20FFF7D3FC0021D9
:1007F0000A20FFF7CFFC88211220FFF7CBFC012550
:10080000212301AC21000222132063702570FFF721
:10081000F5FC202302222100132063702570FFF7CE
:10082000EDFC00211520FFF7B5FC5620FFF7D6FCA4
:1008300003B030BD0022044B9A70002801D1D8705B
:1008400070470132DA70FBE7C00500200022014B3F
:100850009A707047C005002010B55120FFF7BEFC0C
:100860005320FFF7BBFC03211F20FFF793FC56200A
:10087000FFF7B4FC0122014B9A7010BDC0050020A7
:1008800010B582B06B46DC1D002351202370FFF7AA
:10089000A5FC5320FFF7A2FC21001F20FFF78CFCD2
:1008A000207802B010BDC046F0B5264C83B0E57884
:1008B000012D01D003B0F0BDA378012B33D0022B62
:1008C000F8D1FFF7DDFF071EF4D101211520FFF756
:1008D00061FCA0211220FFF75DFC04210A20FFF734
:1008E00059FC00210A20FFF755FC88211220FFF750
:1008F00051FC212301AE02223100132073703570A8
:10090000FFF77CFC20230222310013207370357026
:10091000FFF774FC00211520FFF73CFC5620FFF781
:100920005DFCA770C6E7FFF7ABFF0028C2D103212B
:100930001F30FFF72FFC5620FFF750FC0223A37057
:10094000B8E7C046C0050020F0B5474680B484B083
:100950006B46DC1C00236D4E80460E6051202370D8
:10096000FFF73CFC21001F20FFF726FC2378802B9B
:10097000F8D1674F1E20391DFFF71EFC782100209B
:10098000FFF708FC06210620FFF704FC7A2100206F
:10099000FFF700FC5320FFF721FC88211720FFF709
:1009A000F9FB88211820FFF7F5FB88211920FFF7B4
:1009B000F1FB00211520FFF7EDFB02210120FFF7DD
:1009C000E9FB1E211D20FFF7E5FB524BC046C04648
:1009D000C046013B002BF9D102AD02332B704346D8
:1009E000022229000F206B70FFF708FC6B4601AC58
:1009F000591D0820FFF7E0FB6378002B05D1123367
:100A000063703B791A2B00D872E0C0230322237055
:100A10002100933B0420A370FFF7F0FB802398464E
:100A200023700023022221000C206370FFF7E6FBF5
:100A30001C232370434663703B79192B5BD0022241
:100A400021001420FFF7DAFB0227102302222100E5
:100A50000A2023706770FFF7D1FB122302222100C6
:100A60000D2063702770FFF7C9FB0123022223705A
:100A7000210006330E206370FFF7C0FB382323707C
:100A8000293B63700023032221000220A370FFF79B
:100A9000B5FB71210920FFF77DFB80232370103BFC
:100AA00063704F3B04222100A3700B201F33E370BF
:100AB000FFF7A4FB5620FFF791FBFF210E20FFF765
:100AC00069FB062231000820FFF7B8FB73796D2B14
:100AD00014D0022304222B702900FD330F206B70E9
:100AE000AB70EB70FFF78AFB04B004BC9046F0BD1E
:100AF0001523637089E7B3332370A0E780330622A0
:100B0000310008207371FFF779FBE2E7400B00200A
:100B1000C005002088130000F0B54F464646C0B41B
:100B200085B06B468846DC1C002315002370070047
:100B300003F01CFC43467B4E2D181E605120FFF72E
:100B40004DFB08E021001F20FFF736FB03F00EFCF1
:100B5000854200D2D2E02378802BF3D1724B1E2045
:100B60009846191DFFF728FB43461B7999467821C3
:100B70000020FFF70FFB06210620FFF70BFB7A2171
:100B80000020FFF707FB5120FFF728FB5320FFF75A
:100B900025FB88211720FFF7FDFA88211820FFF791
:100BA000F9FA88211920FFF7F5FA00211520FFF73F
:100BB000F1FA02210120FFF7EDFA1E211D20FFF7B7
:100BC000E9FA022302AD022229000F202B706F7078
:100BD000FFF714FB6B4601AC591D0820FFF7ECFA38
:100BE0006378002B06D11233637043461B791A2BAE
:100BF00000D880E0C023032223702100933B04200F
:100C0000A3708027FFF7FAFA0023022221000C20AC
:100C100063702770FFF7F2FA5A2302222370210033
:100C2000113305206370FFF7E9FA1C232370434654
:100C30001B796770192B6AD0022221001420FFF75C
:100C4000DDFA02271023022221000A202370677098
:100C5000FFF7D4FA1223022221000D2063702770BF
:100C6000FFF7CCFA012302222370210006330E2065
:100C70006370FFF7C3FA38232370293B63700023A6
:100C8000032221000220A370FFF7B8FA7121092086
:100C9000FFF780FA80232370103B63704F3B0422E0
:100CA0002100A3700B201F33E370FFF7A7FA562033
:100CB000FFF794FA01210020FFF76CFAFF210E20C4
:100CC000FFF768FA062231000820FFF7B7FA7379B8
:100CD0006D2B1FD0022304222B702900FD330F201F
:100CE0006B70AB70EB70FFF789FA484605B00CBC2F
:100CF00090469946F0BD152363707BE70A4B1E2092
:100D0000191D9846FFF758FA002399462FE7B33389
:100D1000237091E780330622310008207371FFF7BA
:100D20006DFAD7E7400B0020C0050020F0B50400A5
:100D300083B0512017000E00FFF750FA5C20FFF738
:100D40004DFA002F22D0E719BFB201AD230A0222CB
:100D5000290003206B702C70FFF750FA80210220CD
:100D6000FFF718FA05230134A4B2C046C046C046B6
:100D7000013B002BF9D100210220FFF70BFA3100D3
:100D80000420FFF719FA0136BC42DFD15620FFF7E5
:100D900025FA03B0F0BDC046F0B50F0085B001AC38
:100DA000032200210600200002F0A8FF654D532019
:100DB0003D60FFF713FA0023634A02A902920393EE
:100DC00001200822FFF71AFA6B460122591D012063
:100DD000FFF7ACFF5320FFF701FA61780820FFF717
:100DE000D9F963780C3B0E2B00D8A0E00023574ABA
:100DF00002A90292039304200822FFF7FFF90023BF
:100E0000534A02A90292039305200822FFF7F6F93C
:100E10000023504A02A90292039306200822FFF7FA
:100E2000EDF900234C4A02A9029203930C200822F8
:100E3000FFF7E4F90023494A02A9029203930D2027
:100E40000822FFF7DBF9022303222370210022335B
:100E50000F20A3706670FFF7D1F90023404A02A962
:100E60000292039311200822FFF7C8F900233D4A9C
:100E700002A90292039313200822FFF7BFF900236F
:100E8000394A02A90292039314200822FFF7B6F907
:100E900000238E2202A9029203931620863AFFF7BE
:100EA000ADF90023482202A9029203931A20403A86
:100EB000FFF7A4F900234E2202A9029203931B20FC
:100EC000463AFFF79BF930211C20FFF763F9002316
:100ED000302202A9029203931E20283AFFF78EF9CE
:100EE00001211520FFF756F9AA211220FFF752F928
:100EF0002E211D20FFF74EF90A23C046C046C046EA
:100F0000013B002BF9D11E211D20FFF743F90021E1
:100F10001520FFF73FF929000622A020FFF706FF62
:100F2000062229000820FFF769F905B0F0BDC023AB
:100F3000032223702100933B0420A370FFF75EF986
:100F40005DE7C046400B0020020A0C10C0122D00C5
:100F50005A6E09002C0105008000040002120000F6
:100F6000240E080A812200001CC00000F8B50023EE
:100F700017000F221E4C050023700B780E00134043
:100F8000032B22D0052B13D11A4B1B78032B0FD028
:100F9000002F0DD0300006221749083002F046FE1F
:100FA000002805D13A003100280001F085FE01E05B
:100FB000FFF77EFA5320FFF711F910490420FFF7DD
:100FC000FBF85620FFF70AF9F8BD80231B01C01873
:100FD0006060FFF7C1FAA068FFF796F9A17AE068B0
:100FE000FFF786F9A37A1033DB012361E2E7C046FD
:100FF000C805002000000020400B00202E07002024
:1010000025220B4B10B55A7000220A4B25201A7569
:10101000FFF732F98C204000FFF7AEFA0020FFF70F
:1010200091F9FFF755FA002001F042FE10BDC046CD
:1010300000000020C805002010B503F0C7FB03F036
:1010400095F90122024B1E3098611A7710BDC046F7
:10105000C8050020202310B50B4CE35C1B0702D011
:10106000FFF726FA10BD7820FFF786FA0120FFF778
:1010700047FA23696068C01890231B019C466044AE
:10108000FFF76AFAEEE7C046C8050020F0B547460C
:10109000804680B402200E00FFF732FA8C231C4DEC
:1010A0005B01F0181B4C6B786060252B1ED0242749
:1010B000FFF752FA206AFFF727F9E15DA06AFFF710
:1010C00017F9E35D1033DB0123616B78252B02D028
:1010D00004BC9046F0BD4346E3626B882663102B48
:1010E0000CD9012334222370A354F1E7638C002B25
:1010F000DDD0FA225343C0186060D8E73423E35CA4
:10110000002BE5D0012334222370A354E0E7C0462E
:1011100000000020C805002010B5C30704D50F2328
:10112000194003290AD010BD064B1B78002B02D1B1
:10113000FFF7BEF9F7E7FFF77FFFF4E70220FFF7BD
:10114000DFF9F0E7C8050020F0B5474680B4514C00
:1011500080462378002B00D182E0352263784E4D03
:101160000133AA5CDBB26370002A49D02823637084
:101170002B78002B58D1688C0301181A1930FF30D6
:10118000FFF7FAF9252360686370AF6B002800DA77
:1011900076E07843A16802F0B1FBC619B80900F007
:1011A000B7FD6388688C013363804346181A801941
:1011B000FFF794F96078FFF75FF85120FFF70EF81A
:1011C00078210020FEF7E6FF7A210020FEF7E2FFFB
:1011D0005620FFF703F8314BA96B1A7853009B1880
:1011E0000A339B018B421CD22B7D0133DBB2162BC1
:1011F00044D900232B75002A49D1FFF7CFFA10E01C
:101200002A78002A11D1272BB5D88C204000FFF76F
:10121000B3F96078FFF730F8002000F079FDFFF7B0
:1012200057F904BC9046F0BD28234246E86A121ADA
:101230001B4816181B4886420CD8286B091A1A48F6
:101240000E181A48864205D8FA205043401A6060AA
:10125000A160E260002234212A706A546280D2E7E1
:101260005120FEF7BBFF78212020FEF793FF562088
:10127000FEF7B4FF642000F04BFDD2E72B75D0E7FA
:1012800040427843A16802F039FB3E1A86E7FFF737
:10129000E3FAC6E700000020C8050020C3050020CF
:1012A000A8FDFFFFA71D000018FCFFFF186618002F
:1012B00010B5094C237F002B01D1002010BD03F095
:1012C00055F8A3699842F8D3C01A044B9842F4D851
:1012D000002301202377F1E7C8050020FF03000069
:1012E00010B5FFF7A9FE10BD10B503F017FAFFF710
:1012F000DFF810BD094B10B504005868002805DB65
:101300006043996802F0FAFA001910BD4042604348
:10131000996802F0F3FA201AF7E7C04600000020AF
:10132000034B10B5DA689968504302F0E7FA10BD34
:1013300000000020084BC218084B9A420BD8084BFB
:10134000084ACB18934206D8FA234343064A5B1A4D
:1013500053609160D0607047A8FDFFFFA71D00009B
:1013600018FCFFFF186618000000002070B582B05E
:1013700008AC2578084C8600A2622422A35406AB50
:101380001B8830182381079BC000A0632184E36081
:10139000A57202B070BDC046C805002010B5034A52
:1013A000034B1A60FFF72CFE10BDC04648660008CC
:1013B000A00700203523014AD0547047C8050020FB
:1013C000014B58787047C04600000020014B187848
:1013D0007047C0460000002070B5041E094D02D0C1
:1013E0002B78002B01D02C7070BD5120FEF7F6FE3B
:1013F0007A212020FEF7CEFE5620FEF7EFFEFFF703
:1014000067F8F0E700000020014B58840120704786
:10141000C8050020014B18607047C0460406002034
:1014200010B582B001AB1880054B82B21870054828
:10143000120A04305A7002F01FFC02B010BDC04600
:10144000100000200406002010B5054C2068FEF7AF
:101450003DFF044861780430FEF752FF10BDC046DE
:10146000100000200406002070B582B001AD288075
:1014700084B20198240A0E00FEF728FF002C03D046
:1014800021003000FEF73CFF200001F06DFF064B0D
:101490002A7806481A703100220004305C7002F08D
:1014A000EBFB02B070BDC046100000200406002017
:1014B00010B582B00C0006220949684602F0DCFB38
:1014C0000322084B144029329C541A0006212C3266
:1014D0005170D86A694601F087FF02B010BDC0465E
:1014E0006466000804060020072310B52C2203249C
:1014F00082B001A90B70064B48709C541A00013C45
:101500002C325470D86A01F06FFF02B010BDC04693
:101510000406002000B50A4987B018220831684641
:1015200002F0AAFB03212C22064B99541A00153114
:101530002C325170D86A694601F056FF07B000BDE1
:101540006466000804060020F0B52F4987B0040047
:10155000182208316846182602F08EFB102C1ED97E
:1015600001F094FB050001F0EBFE002843D00322BC
:101570002C23264F2100FA5428003B0010392C332D
:101580001034143089B25E70A4B280B200221023ED
:101590000F2935D8002110250F2C1BD914E001F09C
:1015A00075FB050001F0CCFE002824D003222C237B
:1015B000164F2800FA543B002C335E700022102393
:1015C00010341430A4B280B2C826012176009025D0
:1015D000B44212D96C4663701023A072000A2171C4
:1015E000E0726946F86AA270E570637201F0FCFE71
:1015F000012007B0F0BD0020FBE7E5B2210AE9E7D2
:10160000CBB20A0AC6E7C04664660008040600209A
:10161000F0B50D00154987B008310600170068467F
:10162000182202F029FB01F031FB040001F088FED2
:10163000002819D003212C220D4B143499541A0080
:1016400015312C3251706A46A4B25670D57094721E
:10165000D86A360A2D0A240A69469670157157729F
:10166000D47201F0C1FE012007B0F0BD646600082D
:101670000406002000B50A4987B0182220316846C8
:1016800002F0FAFA03212C22064B99541A00153164
:101690002C325170D86A694601F0A6FE07B000BD31
:1016A000646600080406002030B585B001AC09224C
:1016B0000021200002F022FB0B4A09251368257047
:1016C000190A6370A170190C1B0EE17023710321BC
:1016D0002C23D15413002C335D702100D06A01F00B
:1016E00083FE05B030BDC046040600207047C046EA
:1016F00003220C4B1140293200B599541A000021E5
:101700002C32517083B09A8D01AB1A800198FEF78C
:10171000DDFD002001F028FE042001F01FFE03B0D3
:1017200000BDC0460406002030B583B005000C00A3
:1017300006220021684602F0E1FA03220B4B144016
:1017400029329C541A0006212C325170694602221B
:101750000A702A79D86A8A706A79CA700D220A7169
:101760000D324A7101F040FE03B030BD0406002086
:1017700030B583B005000C0006220021684602F057
:10178000BDFA03220B4B144029329C541A00062147
:101790002C325170694602220A702A79D86A8A70FE
:1017A0006A79CA7005220A714A7101F01DFE03B000
:1017B00030BDC046040600203022C1780B4B99543E
:1017C0004279017912028A185A86C2798179120205
:1017D0008A189A86427A017A12028A18DA86C27ABE
:1017E000817A12028A181A877047C04604060020C0
:1017F00010B5C11C024805223C3002F03DFA10BD74
:101800000406002000B583B001AB18800198FEF7F4
:101810005DFD002001F0A8FD03B000BD30B50D490D
:1018200083B001AC050002223831200002F024FA16
:1018300003212C22084B657099541A0001392C326F
:101840005170D86A210001F0CFFD042001F086FD1F
:1018500003B030BD646600080406002010B501F036
:101860006FFD002802D01320FFF7D8FF10BDC0463F
:1018700010B5040001F064FD002803D02000FFF73C
:10188000CDFF012010BDC046014B18707047C04607
:1018900014000020084A13780370084B197841702F
:1018A000597881709978C17019799B680171437179
:1018B000536883717047C04614000020480600201A
:1018C0000378084A41781370074B19708178597072
:1018D000C178997001795960417999608379536031
:1018E0007047C0461400002048060020F0B5184B91
:1018F000184918781A7B5F78121A0A805A7B1649A1
:10190000D21B0A809E789A7B1449921B0A805968E0
:101910001A69134C521A13490A8099685A69521A63
:1019200011490A80114A55689168491B2180147B2E
:10193000517B9473091B19830121D173987619790E
:10194000DF765977197A1E7715749977F0BDC046FE
:1019500048060020BE0A0020BA0A0020BC0A002067
:10196000C00A0020B80A0020C20A0020140000208B
:10197000F8B5114B41788278C67805794479877932
:1019800019735A739E731D615C610C48002F00D15E
:10199000052711432A0031430A438760224301D1BE
:1019A000FF325A61002242605A609A609A705A70FF
:1019B0001A70FFF79BFFF8BD4806002014000020B6
:1019C00010B5002805D06422034B5A73FFF78EFF31
:1019D00010BD014B5873F9E71400002070B50E4C90
:1019E0001D0020736173A273642B05DD0023236146
:1019F0006361FFF77BFF70BD1802C01A642102F01B
:101A000007F820616420451B2802401B642101F077
:101A1000FFFF6061EDE7C0464806002010B564286E
:101A200003D8024B9860FFF761FF10BD140000203F
:101A3000F8B5012812D0324A537B1370314B197B11
:101A40001970597B5970997B997019695960596956
:101A500099609368536002F0D5FEF8BD284EF47B80
:101A60000F2CFAD8284B0F210020185E254D60431B
:101A700001F0CEFFAB7E0F21C018244B2870002050
:101A8000185E604301F0C4FFEB7E0F21C018204BAD
:101A900068700020185E604301F0BAFF2B7F0F21B1
:101AA000C0181C4BA8700020185E604301F0B0FF06
:101AB0006B7F0F21C018184B68600020185E6043D0
:101AC00001F0A6FFAB7F0F21C018144BA8600020C7
:101AD000185E604301F09CFF337C0F21C718182368
:101AE000E85E604301F094FFB37B6421C018C0B28C
:101AF0003073784301F002FF01347060F473AAE799
:101B00001400002048060020BE0A0020BA0A002067
:101B1000BC0A0020B80A0020C20A0020C00A002027
:101B2000172370B586B06B44180003F071FC6B4648
:101B3000DA7D182A32D918236A461925D375182256
:101B4000194E013333710023B11DC45C01330C7095
:101B5000DCB201319442F8D3002300E0551CB218E6
:101B60009371EAB2192AF9D13F231049CB5C0A00DC
:101B7000002B01D13200033340200C5C2031002CBB
:101B800001D11B34311D708C019169460294B48CD3
:101B90000C80316AFFF7EAFB06B070BD024E551C9F
:101BA0003571002ACFD1D7E7280000206806002031
:101BB00010B502F0DBFB084B00225B6C984209D2A7
:101BC00006491B1AC98C8B4204D9054B1A7850421E
:101BD0004241D2B2100010BD68060020280000204B
:101BE000C205002048220021024B9854013299542A
:101BF0007047C0466806002070B50D1C1F2900D92B
:101C00001F25084EECB222000100300002F034F82B
:101C10003F23F554044B063420335C70FFF780FFFC
:101C200070BDC046680600202800002070B50D1C5D
:101C30001F2900D91F25094EECB2330020332200A2
:101C40000100180002F018F84023F554044B063444
:101C500024335C70FFF764FF70BDC0466806002047
:101C6000280000202023064A10B5D054113B984389
:101C7000042318432423D054FFF752FF10BDC0465D
:101C80002800002010B5024B5884FFF749FF10BD13
:101C90002800002010B5FFF743FF4C23074AD15C12
:101CA0004A3B0B4203D15021525C134202D0FFF752
:101CB00075FB10BD002003F009FEF8E76806002060
:101CC00070B50A1C182900D91822D2B20C4E551C26
:101CD0003571002A0AD0541EE4B23419B31D0734FA
:101CE0000178013019700133A342F9D1002300E0DB
:101CF000551CB2189371EAB2192AF9D170BDC046C9
:101D000028000020014BD8847047C04628000020DE
:101D1000024B5A6C94466044586470476806002031
:101D2000512310B5094AD35C002B04D0084B1B6823
:101D30001B78002B00D010BDFFF7BAFA002802D1A3
:101D4000FEF7B2FDF7E7FFF7CFFAF9E768060020E4
:101D5000A007002001215123014AD1547047C046F9
:101D600068060020522310B5084CE35C022B01D01A
:101D7000002010BDFFF71CFF0028F9D05123E05CC4
:101D8000033843425841C0B2F3E7C046680600201A
:101D9000F0B544465F4656464D465122F0B4BF4C1E
:101DA00083B0A35C032B0FD0012B64D0022B00D196
:101DB00041E15325BA4B5884635D002B00D132E1D9
:101DC0005123E35C002B56D100225223E254B54A42
:101DD00000239046B44AB54D9346022B17D02B688A
:101DE0001B78002B07D15133E35C002B52D0FFF757
:101DF000EDFA00284BD002F0E5FD002818D1512360
:101E0000E35C002B3ED15233E35C022BE7D1FFF7BA
:101E1000CFFE0028E3D05123E35C002B00D1BFE0CC
:101E20002B681B78002BE2D002F0CCFD0028E6D016
:101E3000200052265230FEF775FAA35DDA0730D43F
:101E400002271F424CD1DA0660D45AB2002A62DB64
:101E50005A0600D58FE05A0700D57CE01A0700D556
:101E600079E09A0600D5D1E0002B00D0D8E05123CC
:101E7000E35C002BB3D003B03CBC90469946A2462D
:101E8000AB46F0BD5223E35C002BA6D1F3E702F092
:101E9000A7FEB0E7FFF70CFA0028A8D0FFF724FA56
:101EA000A5E701A96846FEF7CDFA814B019A019991
:101EB0001A605B46009A1A602B6810009B6898476E
:101EC00002F054FA49230022E254A35D60645122D7
:101ED000A25C002A00D180E7802B00D17FE7CAE70F
:101EE00001A96846FEF7AEFAFEF7E2FA2B680199FF
:101EF0009B6900989847FFF763FA252832D02B6832
:101F00001B78012B32D05223E35CE0E72B685B693E
:101F10009847A35DDBE72B681B78002B43D1543334
:101F20009A46A24451460020FEF720FA53465978BB
:101F30005423E35C090259182B6889B2DB6801203D
:101F40009847A35D5A0600D590E09A06BFD5FEF7E4
:101F5000AFFAA35DBBE72B680021DB680020984740
:101F6000A35DB4E74C23E35C1F42C8D102F038FE06
:101F70005223E35CABE701A8FEF786FA2B681A78D8
:101F8000002A34D04822A25C002A00D092E021002E
:101F900054314A781B69019898475223E35C96E7CD
:101FA00002F09EFD1BE754239A46A24451460120AD
:101FB000FEF7DCF9534659785423E35C09025918BB
:101FC0002B6889B2DB6801209847A35D5A0658D474
:101FD0009A0600D47BE701A8FEF756FA53465A78D2
:101FE0002B6800211B6901989847A35D6FE70F21BB
:101FF0005432A25C0A40052AC9D1220021007B325A
:1020000054310020FEF7CAF92B68C0E701A8FEF79B
:102010003BFA2B681A78002A17D121005431B9E70E
:10202000FEF746FA6FE7FFF735FE5123E35C002B1E
:1020300000D1C9E61FE753250133A354184B588438
:10204000635D002B00D0BBE6EDE754239946A14425
:1020500049460120FEF78AF94B465A782B68002141
:102060001B69019898475223E35C30E701A8FEF70B
:102070000BFA2B6800221B69514601989847A35D13
:1020800025E701A8FEF700FA53465A782B68514617
:102090001B6901989847A35D19E7C04668060020B0
:1020A00028000020C40A002098070020A007002074
:1020B0009C070020260054361B6931007278019875
:1020C00098474923E15C002924D17278002A00D185
:1020D00019E75423E05CC30600D414E74B01591AF6
:1020E0004346C85441444A70220001207B32FEF727
:1020F00055F949225421A35C615C0133DBB2A3543E
:10210000C90600D5FFE6802149420B43A354522360
:10211000E35CDCE60B33E05C7278DFE770B505006A
:1021200002F024F90A30040002F020F98442FBD8BE
:1021300002215123024A2800D154FFF729FE70BD25
:102140006806002001217C23044A10B5D154040004
:1021500002F00CF9024B04191C6010BD6806002047
:10216000E806002070B57C24074D2B5D002B01D1C3
:10217000002070BD02F0FAF8044B1B689842F7D3B8
:10218000002301202B55F4E768060020E806002014
:1021900000487047E8690008074B08481B781A098F
:1021A000303282700F221340092B02D93733C370AB
:1021B00070473033C370FBE7C40500205000002097
:1021C000014B18807047C04690050020F0B5574677
:1021D0004E4645468246E0B48AB01C0012AB1E78DB
:1021E00001AD1700F31C89462122002128009846E2
:1021F00001F084FD534613201840F31DDBB29C46CA
:1022000043462B7043461B0A6B700423AB704B464E
:102210006F713F0A2B71AF71002E0CD023000B227F
:10222000013EF4B201346A441C191978013311706B
:102230000132A342F9D16B46624618705A702900E8
:10224000009801F0D1F80AB01CBC90469946A2460D
:10225000F0BDC046F0B5474680B40D0082B007001F
:10226000002600291BD0002819D00F4B98460DE0FE
:102270004246BB191288A61900942C1B1B21022070
:10228000E5B2FFF7A3FFF6B2002D08D02B1C142DEA
:1022900000D91423DCB201F08FFA0228E8D830000C
:1022A00002B004BC9046F0BD90050020F0B5474652
:1022B00080B40D0082B00700002600291BD0002842
:1022C00019D00F4B98460DE04246BB191288A6194B
:1022D00000942C1B1D210220E5B2FFF777FFF6B218
:1022E000002D08D02B1C142D00D91423DCB201F0D2
:1022F00063FA0228E8D8300002B004BC9046F0BD72
:1023000090050020F0B50426002589B00EAC277892
:1023100001ACA6700D3626713E1D6570E5706671C4
:10232000A171E57122726572002F17D00A2206365C
:10233000F6B21D78511CA554CAB20133B242F8D18D
:102340000637FFB2032318406B4618705E702100F9
:102350000098277001F048F809B0F0BD06270A265A
:10236000F0E7C04610B50124154B88B01C7000235F
:1023700001A94B70CB70CB714B728B724B73CB73CB
:1023800004220A330B7404330B700B3B18406B466A
:102390008A700D320A710B3A4A710A721232CA728D
:1023A0004A7418706A4612238C71537006340C7389
:1023B000009808348C7301F017F808B010BDC046BF
:1023C000EC0600207047C046F0B54746884680B40A
:1023D00084B001AC1500060009220D4920001F0041
:1023E00001F04AFC4346637103231E406B466A4674
:1023F0001E7009235370A57121002D0A0098E57104
:10240000277200F0F1FF04B004BC9046F0BDC04656
:102410000C67000810B50A23FFF7D6FF10BDC046B1
:10242000F0B5474680B488B01C000EAB01AD1E78F5
:10243000070088461B220021280001F05FFC731C66
:102440002B701B0A6B7004230320AB70434638408B
:102450000133771DFFB22B71002E0CD0230009220F
:10246000013EF4B201346A441C1919780133117029
:102470000132A342F9D16B4618705F7029000098B1
:1024800000F0B2FF08B004BC9046F0BD10B50A4998
:1024900084B0040007220C3102A801F0EDFB0322F6
:1024A00001AB144004321C705A7002A9019800F06C
:1024B0009BFF04B010BDC0460C6700080123022238
:1024C00000B5837083B01833837101AB1A70033287
:1024D0005A70811C019800F087FF03F0CDF803B01B
:1024E00000BDC046F0B5067AC379877A36021E432E
:1024F000437A3F021F43172302210400C5788278E4
:102500002D0283B015434278837101AB19705A7064
:10251000811C019800F068FF2100053DAAB20B3133
:102520003B00300003F084F803B0F0BD70B50C0040
:102530006A4986B0050016001431142201A801F082
:102540009BFB002C07D0002E05D0132D1DD0152D80
:1025500012D0122D01D006B070BD2278012AFAD116
:1025600069465F4DAB898B73AB7BCB730133DBB2B9
:10257000002B15D1AA7314E0E3793033DBB21A2BA8
:10258000E9D8584A9B00D3589F466A46544DAB89B8
:102590009373AB7BD3730133DBB2002B00D10123E8
:1025A000AB732A7CEB7B142153436A4601A8137456
:1025B000FFF750FECFE76A46694623780E20137175
:1025C000637868445371A3789371454B9B89DAB261
:1025D0001B0A8B720B72EB234A72CB72CA710422F4
:1025E000414901F049FB142101A8FFF733FE012006
:1025F000FFF7E6F9AFE7A37A042B68D0052BAAD141
:102600006423E07AFF21584301F002FA002203001C
:10261000E07200210020FFF7E1F99CE76946E37AC8
:10262000A27A1B0213432E4A01A8938122780A71D1
:1026300062784A71A2788A71DAB21B0ACB738B7204
:102640000B72E1238A734A72CA71CB721421FFF7AD
:1026500001FE80E7A27A224D642A36D9EA7B6946D8
:10266000AB898B73AB7BCB730133DBB2002B00D117
:102670000123AB732B7C142153436A4601A81374C6
:10268000FFF7E8FDE87B002802D101230130EB735E
:10269000FFF7C4F95FE76946114DA27AAB892A7446
:1026A0008B73AB7BCB730133DBB2002B00D10123E7
:1026B000AB73EB7B142153436A4601A81374FFF7F5
:1026C000C9FDA07AFFF77CF945E7EA73C7E7627BAB
:1026D000217BE07A6523FFF781F93CE70C6700086E
:1026E00050000020A0660008F4690008FF20704731
:1026F000F0B557464E464546E0B48AB0170012AAD8
:102700001688A82281468A469201964200D1A1E00D
:10271000774A964263D01A1CFF2B5ED893B2984634
:102720000024744D01E00134E4B202F0A1FE8442C1
:1027300047D2A00003195B00EA5AB242F3D1EA186B
:1027400052889742EFD84245EDD86B498E4200D16E
:10275000ABE009260427B04603A98F7047460E70E8
:102760000F71002607278A7100224E70CE704F71BC
:10277000CE719E18AE1936798F1801323E72052A35
:10278000F7D103264B46041964002C19647A1E40C5
:10279000FF2C00D1AAE0594B2401E4180023E05C8F
:1027A000CA180133D072102BF9D11B2207330B70DA
:1027B000023B4B7102AB1E705A70029800F014FE7F
:1027C00005E00A233A0051464846FFF7FDFD0AB0EE
:1027D0001CBC90469946A246F0BDFF229EE7072FFB
:1027E00099D1474A1278002A95D01723082003A9C7
:1027F00004220B708871002306380872C87388752C
:102800000D30C87548468A7005324B70CB700A711E
:10281000CB714A728B7220328B734B744B750B7673
:102820002833CA724B760132253B03400A730A24CF
:10283000CA748A7601AA13701B234C7301340C747A
:1028400053701B348C740198183C4F710C7500F058
:10285000CBFDBCE702AC200002F0DAFD23780100DA
:102860000233DBB21E1C122B00D9122609200023D2
:102870000427F2B203AC951C2071EDB2023A05A810
:1028800025706370E370E371A7706671A77101F042
:10289000F3F94A46032313406A4604351370557012
:1028A0002100009800F0A0FD91E70A26042703A963
:1028B0000E7000268A7100228F7005370F71013F5C
:1028C0004E70CE704F71CE719E18AE1936798F183A
:1028D00001323E72052AF7D1041964002C19637A7B
:1028E00003264B734B4609321E4063E70D2261E716
:1028F00003280000F468000802280000506900085E
:10290000EC060020F0B589B00D0019000EAB1600E2
:102910001A880FAB1B8805AC9C46052307000420D2
:1029200023700023A070681C6370E3702071A37192
:1029300001202372A0236071E0719B019A4207D0AD
:102940000A23320029003800FFF73EFD09B0F0BD30
:1029500012236B440093624604AB300002F078FF10
:102960000028EDD06B461B8A092263716B465B8A97
:102970002100E37103AB1F705A70039800F034FD1F
:10298000E4E7C046F0B557464E464546E0B415006C
:1029900006229846002386B001AE3270023AB27029
:1029A00001323271043A81468A467370F370727153
:1029B000F3710024164F0AE0A3001B195B00FA18FC
:1029C0005288AA4201D3424511D90134E4B202F03F
:1029D0004FFD8442F0D30A232A0051464846FFF7B0
:1029E000F3FC06B01CBC90469946A246F0BDFB5ACB
:1029F000B27133721B0A4A467372032313406A464C
:102A000013700A2353703100009800F0EDFCE8E7E2
:102A1000F468000810B50A4984B004000522283182
:102A200002A801F029F9032201AB144002321C7004
:102A30005A7002A9019800F0D7FC04B010BDC0463E
:102A40000C6700080023F0B50F4C9C4600212700BE
:102A500007260125237063703000DA08A218127966
:102A600018400241154205D07A181373012294468A
:102A70000131C9B20133DBB2252BEDD16346002B06
:102A800000D1F0BD6170FCE7F006002010B5C3076F
:102A900006D40421034A13788B431370FDF708FD15
:102AA00010BDC046B4060020F8B54F464646414B1F
:102AB000C0B40600588E98461D00830018184000C8
:102AC0000C001700FFF73EFB3B4B1A789946042396
:102AD0001343E72213404A46137002F049F8002CD2
:102AE0004DD06378002B05D14B461A780823134349
:102AF0004A46137081231B01F0186863FDF72CFD13
:102B00002E4B1B78002B15D0207800F067FC4B462D
:102B10000120197823784A06DB08D20F03409A4235
:102B20000DD002F03DF800223D23EA540CBC904643
:102B30009946F8BD0837FF01F61BAE63E4E73C2376
:102B4000E85401235A40402399434B4610408001EA
:102B5000014319701A4B1B681B68984702F020F854
:102B600000223D235320EA54FDF738FB29000420BE
:102B70003E31FDF721FB5620FDF730FBD6E7AA23B7
:102B80001B01F0186863FDF7E7FC3B1C1B2F0ED8F8
:102B9000DBB20A33DB01F61A43469E634B461A78D2
:102BA000102313434A46137001F0FAFFBEE71B23BC
:102BB000EEE7C046F0060020B4060020B106002073
:102BC000480B0020114A10B51378D90617D4104BC2
:102BD0001B78013B022B02D9FDF76AFC10BD0420D3
:102BE000FDF78EFCDC22120194460A4B18780A4B42
:102BF000C0015B6B6344C018FDF7AEFCEEE7042137
:102C00008B431370FDF754FCE8E7C046B406002080
:102C1000B1060020AD070020F006002070B50D00C1
:102C2000FFF7A0FA002804D13D23134CE35C322BBC
:102C300005D9002000F092FBFDF73AFC70BD402260
:102C4000A25A5343628ED2009342F2DC0420FDF775
:102C500057FCC3235B01E8184223E35C002B04D13B
:102C6000064B1A88FA235343C018FDF775FC3D2222
:102C7000A35C0133A354E1E7F0060020EA0500203D
:102C8000014B18807047C046620000204423014A6F
:102C9000D05A7047F00600204623014AD05A7047A8
:102CA000F00600204023014AD05A7047F006002069
:102CB00010B5FFF747FA10BDF8B53E4A3E4D3F4B01
:102CC00028001A6048220C000B784C305B06DB0FA2
:102CD000AB540231423A00F0CFFF28002100042219
:102CE0000E31543000F0C8FF2800210003221231B9
:102CF000583000F0C1FF5B23627D667EEA54E37DBD
:102D0000A27D1B02D3185C22AB52237E36029E1991
:102D10004023B6B2EE52E37EA27E1B02D3184622B7
:102D200027499BB24988AB528B4200D9A952210056
:102D3000677F237F3F02DF190522BFB2281D1E31A6
:102D40006F8600F099FF23231F22E35C063E1340A9
:102D50003F32AB541B4AB6B2964227D80A3F1A4AB2
:102D6000BFB2974222D8053B0B2B1FD8012000F0A1
:102D7000F5FA0123154C688E22781343E3221340A1
:102D800023704023EB5A5B00984200DD98B2830029
:102D900018184000FFF7D6F99F23227813402370BC
:102DA000FDF786FB00223D23EA5401E0FDF780FB9E
:102DB000F8BDC0463C670008F0060020A0070020D0
:102DC000620000207A0C0000760C0000B40600209F
:102DD0003E230021014AD05CD1547047F006002008
:102DE0001A4B1B4A196810B5914229D0194C1A6028
:102DF000608E830018184000FFF7A4F920005830B7
:102E0000FDF754FA20005430FDF73EFA206EFDF72E
:102E100065FB6423E05AFDF7AFFB6623E05CFDF73A
:102E20002BFA5120FDF7DAF978210020FDF7B2F9ED
:102E30007A210020FDF7AEF95620FDF7CFF910BD3D
:102E400005490978C907D1D4024CDFE7A007002063
:102E50003C670008F0060020B4060020F0B5574695
:102E60004E464546E0B482B007000E0000F068FA16
:102E7000002800D1BAE0CE4B98461B78DA0700D57F
:102E8000C3E03C22CB4CA25C002A20D0CA4A914627
:102E90001278002A00D1EDE00F210A4049460A705D
:102EA00012D0C64B00259A466801401B5044417819
:102EB00001350231C9B200F0C5FA4B461B78EDB2BC
:102EC000AB42F1D843461B7800213C22A1545B075A
:102ED00004D4B94B1B78002B00D1F1E0A36BF01A9E
:102EE0000002000AFEF71CFA43461B783D1A1B0736
:102EF00004D54626A35B002B00D00EE14026A35B41
:102F00009800C3181B01503B1800FEF7F3F92D1869
:102F1000A05B256683081818FEF7FAFEA84B256EFD
:102F20001A886423E2520A37AF4201D93D0027666E
:102F30004223E35C002B03D1A24B1B88ED1A2566CC
:102F400044222600A35A703601339BB2A3527278F2
:102F5000002A03D072899A4200D156E126006836D1
:102F60007379002B05D04423F288E35A9A4200D1AA
:102F700094E020785E23E35C2521C018C0B200F005
:102F800043FD0722C8B2C308E3181B79024013416E
:102F90002070DB0721D56623E054FEF717FA0228DC
:102FA00004D143461B78184200D0B3E0FFF718FF66
:102FB0000122434615001B781D4000D079E04226CF
:102FC000A35D002B03D00020FEF7A2FEA55502B0A2
:102FD0001CBC90469946A246F0BD617800F014FDF5
:102FE0006623C9B261180A7BE254D6E70221704A0F
:102FF00013788B431370FEF78BFEFEF7E7F9022878
:1030000000D1C0E0FEF746FEE1E70222134342464C
:1030100013705C23674C0025E35A01339800C318F2
:103020001B01283B1800FEF765F9C7192766FFF753
:1030300009FD220000236832537122007032537060
:103040004422A3523C33E55400F0ECF95B23E35CEB
:103050005D4A0133534364220120A352257002F0DC
:1030600035FCFEF7B3F9022800D082E78220FEF794
:10307000F9FD7EE725007C3529000120FDF776F972
:1030800007236B4499461A0029000120FDF786F9B1
:103090004B462800197800F0D5F913E7A36E257880
:1030A000636033792372FFF7CDFC0023280073712E
:1030B00060E79343424600201370FEF729FE86E73F
:1030C0004025635B9808C018FEF722FE635B072B60
:1030D00000D981E042220121A1543C4A15689800A0
:1030E000C0180201D800C3181B11D01AFEF702F94C
:1030F0004023E35A2D182566082B48D83D22590055
:10310000A25C5B185B005343314A944664226344DB
:10311000A35208E7FEF7BEFD4AE700F053FB002884
:1031200000D1EBE6230070335B78002B00D0E5E69E
:10313000230068335B79002B00D0DFE64033E25A8E
:103140009946A35B53439B189800C0180001503860
:10315000FEF7D0F844222D18A35A2566A55B252139
:10316000EB18A3525E23E05C684300F037FD237840
:103170000135C9184B46E35A21709808C0186843B6
:10318000FEF7C6FDCAE67E30FEF76CFD3AE7102B6F
:103190002ED93C2B60D83D225900A25C5B185B0005
:1031A00053430C4A944664226344A352BBE6C04690
:1031B000B4060020F0060020B1060020C40A00205A
:1031C00062000020EA050020E204000098070020C9
:1031D000DC050000C4090000214A15683C2B00D81A
:1031E0007DE79800C01800011938FEF783F87FE7E3
:1031F0003D225900A25C5B185B005343FA22D200C7
:10320000944664226344A3528DE67023E25C153B2E
:10321000E2545C2273889800C0180001A352FEF7A4
:1032200069F8402345192566B2880E49E2524622C4
:10323000F3884988A3528B4200D9A15221007031F2
:103240000B89094A63865B23E35C013353436422A1
:10325000A35200234B7081E66423044AE25262E6E3
:103260009807002062000020E2040000204E0000C9
:10327000014B58800120704762000020024B0288F9
:1032800070335A817047C046F006002070B50A4E70
:103290000C8835006835EC8001000522280000F01C
:1032A000EBFC01236B714333F35AE41A034B9C424A
:1032B00001DD00236B7170BDF0060020FE7F000071
:1032C00030B5184C0123210070314B7002786F33F8
:1032D000E254837842781B02D3184B800279C3787A
:1032E00012029A1892B283798A8045791B02EB18F0
:1032F000CB80037AC5791B02EB180B81837A407A65
:103300001B02C3189BB24B81052A01D800224A70C8
:103310004422A25A9B1A044A934202DD00237034CD
:10332000637030BDF0060020FE7F00004822034B92
:103330009A5C4C33027018007047C046F0060020BB
:10334000054A022113781800884304D00120022B7B
:1033500001D9013B1370704790070020014B187092
:103360007047C04690070020024B0A30C0015860E9
:103370007047C04690070020F0B583B06B46154DEE
:10338000154CDE1C31002A00200000F099FA367836
:10339000002E1AD1012301272370667004232A7A94
:1033A00001A851088B43082152000A4013433B43B4
:1033B00003704670A11C0198FEF756F80123237094
:1033C00000236E722B7203B0F0BD1327237866784A
:1033D0001F40E3E7A407002068000020014B18729B
:1033E0007047C046A407002030B583B001AA108002
:1033F00013220A4D84B2031C240A13402B706C70F4
:10340000002C03D0A81C220000F036FC0234E2B2EB
:103410002900034800F000FA03B030BD6800002026
:10342000A4070020044B054A10B51A600023044885
:10343000037200F0D1F910BD480B0020EC680008C1
:10344000A407002070B5AD4C84B003000D0000222D
:10345000694620008A810C301D2D0ED819002A00E3
:1034600000F00AFC0323267B3340012B31D0032BD1
:103470000FD0022B14D004B070BD19001D2200F033
:10348000FBFB0323267B3340012BF0D102F00EFA25
:10349000F1E7A07B112858D8994A8300D3589F465A
:1034A000637C227C1B029B18A17C062B14D0042B6E
:1034B0004ED0052BDFD1132900D0EBE0A37D002BEC
:1034C00003D1E37D002B00D1E8E0812002F0FEF97A
:1034D000D1E7012DCFD9D9E70129CCD12000310086
:1034E0000C30FEF745F9C6E7FEF7C4F8C3E7200045
:1034F00031000C30FDF7DCFFBDE7200031000C305F
:10350000FEF7D2F8B7E7200031000C30FEF70CF9D7
:10351000B1E7200031000C30FEF7EAF8ABE72000FD
:1035200031000C30FEF7E2F8637D227D20001B02A3
:10353000D3186A460F3003A99381FFF7A7FE9AE7D5
:1035400020000F30FFF7BCFE95E7FDF7CDFF92E7B7
:10355000522900D995E06B4A8B00D3589F4623002F
:10356000227DE17C12028A18A17B15330339C9B28E
:10357000009192B25221300001F0F6FF7BE720006B
:103580000C30FEF79BFF76E720000C30FEF7AAFF19
:1035900071E72300227DE17C12028A18A17B15339A
:1035A0000339C9B2009192B21221300001F0DCFF60
:1035B00061E7227D617D1302E27CD218A37D92B285
:1035C0001B02CB189BB29A4200D887E0012310213E
:1035D0003000FEF7F9FE4EE7A37D627D217D1B02E0
:1035E000D3180A02E17C9BB2891889B232000C2000
:1035F00002F00EF93FE7217D32000B02E17C0A2048
:10360000C91889B202F03EF835E7227D617D1302C8
:10361000E27CD218A37D92B21B02CB189BB29A42D5
:1036200040D9012308213000FEF7CEFE23E7227D9A
:10363000617D1302E27CD218A37D92B21B02CB18EB
:103640009BB29A4239D9012306213000FEF7BCFE15
:1036500011E7227D617D1302E27CD218A37D92B234
:103660001B02CB189BB29A4243D90123042130009C
:10367000FEF7AAFEFFE6002202213000FEF706FF59
:10368000F9E64B0600D5F6E6062300223000FEF7E9
:103690009BFEF0E6002000F06BF8ECE6802002F0E4
:1036A00015F9E8E6217EE07D0902411889B2009112
:1036B00030000821FFF71CF8DDE6A17E607E0902DC
:1036C000411889B20191217EE07D0902411889B239
:1036D000009130000621FFF715F9CCE6217EE07D50
:1036E0000902411889B200913000102101F0C6FE94
:1036F000C1E604213000FFF745F9BCE6A40700202D
:1037000058670008A0670008F0B5022587B001AC33
:1037100025700E356570052602AC043D2570002528
:10372000A670124E6570E570123525713578002D42
:1037300019D10227012565710825A5710025207280
:10374000A172000A090A6072E1722273A373120A5D
:103750001B0A210001983770E5716273E373FFF76C
:1037600043FE07B0F0BD6F1CFFB2E4E78900002004
:1037700010B584B002226B4669461A700A230524EC
:103780004B7001A9043B0B7000230872000A8C7077
:103790004872043C00984B70CB700C714C718A716C
:1037A000CB71FFF721FE04B010BDC046014B187865
:1037B0007047C046D0070020014B18787047C046BC
:1037C0008A000020034B18780A3843425841C0B29F
:1037D0007047C0468A00002000230A22036043602D
:1037E000014B1A707047C0468A0000200368002B06
:1037F00003D09B680360002BFBD10023436070471C
:1038000002680023002A01D0180070474268534222
:103810005341DBB2F8E7C046F8B51600174A050079
:103820001378002B26D0013B13700022144B5868EC
:103830001A70092819D0013058601F004400420155
:10384000241810180F4AA400083710183F191C1923
:10385000A060320000F010FA0023267323616B6829
:10386000002B05D09F606F60F8BD5A600020E4E730
:103870002F60F8E70122024B1A70F5E78A0000205A
:10388000D007002050080020030002681068127959
:103890000A701A6892681A60002A00D070475A604D
:1038A000FCE7C046036818687047C04603680020FC
:1038B000002B03D09B680130002BFBD17047C04622
:1038C000136870B50C00002B0ED019681D799B6829
:1038D0001360002B0ED02A0000F0CEF9064A2570A6
:1038E00013780133137070BD51680029EDD1017058
:1038F0002170F8E75360EEE78A00002000224308B9
:103900008B4274D303098B425FD3030A8B4244D3A7
:10391000030B8B4228D3030C8B420DD3FF220902E9
:1039200012BA030C8B4202D31212090265D0030BA8
:103930008B4219D300E0090AC30B8B4201D3CB039E
:10394000C01A5241830B8B4201D38B03C01A5241E0
:10395000430B8B4201D34B03C01A5241030B8B42E2
:1039600001D30B03C01A5241C30A8B4201D3CB02CD
:10397000C01A5241830A8B4201D38B02C01A5241B2
:10398000430A8B4201D34B02C01A5241030A8B42B5
:1039900001D30B02C01A5241CDD2C3098B4201D3CD
:1039A000CB01C01A524183098B4201D38B01C01A4B
:1039B000524143098B4201D34B01C01A52410309C2
:1039C0008B4201D30B01C01A5241C3088B4201D371
:1039D000CB00C01A524183088B4201D38B00C01A1E
:1039E000524143088B4201D34B00C01A5241411A45
:1039F00000D20146524110467047FFE701B5002052
:103A000000F0F0F802BDC0460029F7D076E7704715
:103A100003460B437FD4002243088B4274D303092F
:103A20008B425FD3030A8B4244D3030B8B4228D3D0
:103A3000030C8B420DD3FF22090212BA030C8B42F6
:103A400002D31212090265D0030B8B4219D300E096
:103A5000090AC30B8B4201D3CB03C01A5241830B1B
:103A60008B4201D38B03C01A5241430B8B4201D3CB
:103A70004B03C01A5241030B8B4201D30B03C01AF4
:103A80005241C30A8B4201D3CB02C01A5241830A6E
:103A90008B4201D38B02C01A5241430A8B4201D39D
:103AA0004B02C01A5241030A8B4201D30B02C01AC7
:103AB0005241CDD2C3098B4201D3CB01C01A52412E
:103AC00083098B4201D38B01C01A524143098B42B7
:103AD00001D34B01C01A524103098B4201D30B01A0
:103AE000C01A5241C3088B4201D3CB00C01A5241C5
:103AF00083088B4201D38B00C01A524143088B428A
:103B000001D34B00C01A5241411A00D20146524122
:103B1000104670475DE0CA0F00D04942031000D341
:103B20004042534000229C4603098B422DD3030A96
:103B30008B4212D3FC22890112BA030A8B420CD3A6
:103B4000890192118B4208D3890192118B4204D3CF
:103B500089013AD0921100E08909C3098B4201D34F
:103B6000CB01C01A524183098B4201D38B01C01A89
:103B7000524143098B4201D34B01C01A5241030900
:103B80008B4201D30B01C01A5241C3088B4201D3AF
:103B9000CB00C01A524183088B4201D38B00C01A5C
:103BA0005241D9D243088B4201D34B00C01A524133
:103BB000411A00D20146634652415B10104601D3C0
:103BC0004042002B00D54942704763465B1000D34A
:103BD000404201B5002000F005F802BD0029F8D0F0
:103BE00016E770477047C04610B501000023002259
:103BF000002000F007F910BD70B5094B094CE41A1C
:103C0000A41009D0084AA518AD00ED182B68013C96
:103C10009847043D002CF9D102F0F8FE70BDC04673
:103C2000206A0008246A0008FFFFFF3F10B5032A3E
:103C30001CD903000B439B070FD003780C78821824
:103C4000A34204D015E003780C78A34211D10130CF
:103C500001318242F7D1002010BD03680C68A342F5
:103C6000EBD1043A04300431032AF6D8002AE4D117
:103C7000F1E7181BF0E7C046F0B505000F2A2FD971
:103C80000B0003439B0734D116000C000300103EC9
:103C9000350901352D01451927681F6067685F6088
:103CA000A7689F60E7681034DF6010339D42F3D14E
:103CB0000F239E431036851989191340032B1AD9F7
:103CC0001E1F0023B4080134A400CF58EF50043362
:103CD000A342FAD10324A643331D2240C918ED188C
:103CE000002A05D00023CC5CEC5401339342FAD176
:103CF000F0BD0500F6E71A00F2E7C046F0B583070D
:103D000043D0541E002A3FD0CEB20200032502E069
:103D10001A00013C38D3531C16702B42F8D1032CE7
:103D20002AD9FF220A40150215432A0415430F2CF5
:103D300014D927001A00103F3E09013636019E199A
:103D4000156055609560D56010329642F8D10F220B
:103D500097431037DB191440032C0DD91A00271F85
:103D6000BE080136B6009E1920C2B242FCD1032221
:103D700097430437DB191440002C05D0C9B21C1935
:103D8000197001339C42FBD1F0BD14000300C6E75B
:103D9000031C0A7801311A700133002AF9D17047E7
:103DA00010B5830725D00378002B24D0030003210E
:103DB00002E01A78002A1AD001330B42F9D11968AF
:103DC0000E4A0F4C8A188A43224206D104331968DE
:103DD0000A4A8A188A432242F8D01A001B78002B1C
:103DE00003D0013211780029FBD1101A10BD181A26
:103DF000FCE70300E3E70020F8E7C046FFFEFEFE15
:103E000080808080F8B5DE469B46314B45461C6875
:103E1000A4234E4657465B00E0B50500E0580E006F
:103E2000904600284BD043681F2B0DDC5C1C002DF6
:103E300021D102339B0044601E5000203CBC9046C0
:103E40009946A246AB46F8BD224B002B3CD0C82079
:103E5000400000E000BF002836D0A422002352001A
:103E6000A15843600160A050403283500432835017
:103E70000124002DDDD09A009146814442468821DC
:103E80004F467A50C42252009046804442468739B9
:103E9000994012688A460A43944642466146116038
:103EA000842249465F4652008F50022DC1D1020044
:103EB00055468D32FF3211680D431560B9E7200079
:103EC0004D30FF30E050AEE701204042B6E7C0463B
:103ED000F06800080000000080B582B000AF8023C9
:103EE0001B047B6001F042FD00F058FA124B0022E7
:103EF0001A7000F029F8114B0621180000F0B6FAEC
:103F000000F0FCFCC0467B685A1E7A60002BFAD198
:103F1000FDF720FF0A4B19004320FCF715FD3B007D
:103F2000C0221A70074B1A783B005A70A0235B001E
:103F30001800FEF7F3F8FEE7A7090020003800405C
:103F4000AC09002020F8FF1F80B586B000AF8023A9
:103F50009B020121180002F0A5F880239B02012199
:103F6000180002F05FF83B001C221A703B0003228D
:103F70005A703B0001229A703B00180001F058FF74
:103F80009023DB0501220221180001F0ADFE9023F1
:103F9000DB0501220321180001F0A6FE284B1A6858
:103FA0003B1D1A603B1D30229A803B1D0022DA80A7
:103FB0003B1D00221A813B1D00229A813B1D1822C5
:103FC0005A813B1D1F4A1900100002F0D5F91D4B04
:103FD00001220221180002F05BFA1A4B0022012193
:103FE000180002F055FA174B0121180002F032FABE
:103FF0001423FB1804221A801423FB1803229A703E
:104000001423FB181822DA701423FA189023DB0506
:104010001100180001F082FD1423FB1808221A80F9
:104020001423FB180422DA701423FA189023DB05FA
:104030001100180001F072FDC046BD4606B080BDFB
:10404000C00400200044004090B587B000AF0023BA
:104050007B613B1D180001F069FF134B0021180024
:1040600002F0F8F93B1D9B687B610F4C0F4B1B68FE
:1040700019007869FFF742FC03001B0923620A4C10
:104080000A4B1B6819007869FFF738FC03001A0017
:104090000F2313406362064B0121180002F0DAF986
:1040A000C046BD4607B090BD00440040C00400209B
:1040B0000038014080B584B000AF78600A00FB1C76
:1040C0001A701B4B1B781A00FB1C1B78D318632B30
:1040D00029DC0F23FB1800221A7015E0144B1B7803
:1040E0001A000F23FB181B78D3180F22BA18127866
:1040F00079688A1811780F4AD1540F23FB181A785F
:104100000F23FB1801321A700F23FA18FB1C1278C8
:104110001B789A42E2D3064B1A78FB1C1B78D31803
:10412000DAB2034B1A70C046BD4604B080BDC0462B
:10413000A3090020EC090020B0B500AF374B0221E5
:10414000180002F0E8F9031E23D0344B02211800B6
:1041500002F002FA324B1B881C00304B180002F0B0
:10416000CCF90300DAB22F4B1A552F4B1B68FA22F9
:1041700092009A182D4B1A60294B1B8801339AB272
:10418000274B1A80264B1B88632B02D9244B002215
:104190001A80224B0121180002F0BDF9031E39D00C
:1041A0001E4B0121180002F0D7F9214B1B681900A2
:1041B0002048FFF7A3FB03001A001B4B1B68D21813
:1041C0001D4B1A601D4B1A781D4B1B789A421BD24F
:1041D0001A4B1B785A1CD1B2184A11701A00194B8D
:1041E0009B5C9BB20D4A1900100002F075F9134B4D
:1041F0001A78134B1B789A420CD1114B00221A707B
:104200000E4B00221A7005E0044B00220121180019
:1042100002F03EF9C046BD46B0BDC0460044004075
:10422000A4090020500A00209C090020B4090020A5
:10423000C0040020204E0000B40A0020A60900207F
:10424000A3090020EC090020B0B582B000AF020045
:104250003960FB1D1A70FB1D1B787F2B32D92F4C48
:10426000FB1D1B781A000F231340083B99082B4AAB
:10427000FB1D1B7818000F230340083B9B080633E7
:104280009B00D31804331B68FA1D12781000032218
:104290000240D200FF2090400200D2431A403B6807
:1042A0009B01FF201840FB1D1B781D0003232B40A2
:1042B000DB00984003001A438B1D9B00E318043376
:1042C0001A6027E0164CFB1D1B785BB29B08144953
:1042D000FA1D127852B29208C03292005258F91D5B
:1042E0000978080003210140C900FF20884001002F
:1042F000C94311403A689201FF201040FA1D12781C
:10430000150003222A40D200904002000A43C03325
:104310009B001A51C046BD4602B0B0BD00ED00E0A2
:1043200000E100E080B582B000AF78607B68013BBF
:104330000C4A934201D9012310E00B4B7A68013AF1
:104340005A6001235B4203211800FFF77DFF064BF3
:1043500000229A60044B07221A6000231800BD4611
:1043600002B080BDFFFFFF0010E000E080B500AFAD
:10437000024B1B681800BD4680BDC0469C0900204A
:1043800080B500AF044B1B685A1C034B1A60FDF745
:10439000C7FCC046BD4680BD9C09002080B500AF6B
:1043A000034B1800FFF7BEFFC046BD4680BDC046A8
:1043B00080BB000080B582B000AF0200FB1D1A7008
:1043C000BB1D0A1C1A700D4BFA1D12781A60C046EC
:1043D0000A4B1B899BB21A0001231340F8D0C04638
:1043E000064B1B899BB21A0002231340F8D0034BE3
:1043F0005B68DBB21800BD4602B080BD00380040EB
:1044000080B500AF80231B02034A1900100001F0A1
:104410005CFCC046BD4680BD0004004880B500AFCE
:1044200080231B02034A1900100001F03FFCC04624
:10443000BD4680BD0004004880B582B000AF786002
:104440007B680821180001F0DBFEC046BD4602B0C3
:1044500080BD80B582B000AF78607B681021180005
:1044600001F0CEFEC046BD4602B080BD80B588B02A
:1044700000AF78600A00BB1C1A807B685B4A9342DD
:104480007BD18023DB010121180001F00BFEFFF737
:10449000C5FFC023DB020121180001F0C3FD544B0E
:1044A00004220C21180001F01FFC514B04220D21A5
:1044B000180001F019FC4E4B03220E21180001F0E8
:1044C00013FC4B4B01220F21180001F00DFC0C23B3
:1044D000FB18484A1A800C23FB1803229A700C23FD
:1044E000FB181022DA700C23FB18414A1900100047
:1044F00001F014FB80235B013D4A1900100001F01C
:10450000D5FB0C23FB188022D2011A800C23FB1848
:1045100003229A700C23FB181822DA700C23FB1864
:10452000334A1900100001F0F9FA0C23FB1880221D
:1045300092011A800C23FB1803229A700C23FB189B
:104540001822DA700C23FB18294A1900100001F018
:10455000E5FA0C23FB18802252011A800C23FB1869
:1045600003229A700C23FB184822DA700C23FB18E4
:104570001F4A1900100001F0D1FA1023FB18042281
:104580001A801023FB1800225A801023FB180822DF
:104590009A801023FB180022DA801023FB180122D6
:1045A0001A811023FB1800225A811023FB18BA1C11
:1045B00012889A811023FB180022DA811023FA183E
:1045C0007B681100180001F08DFD7B680121180047
:1045D00001F0F6FD7B681800FFF72EFF7B681800DE
:1045E000FFF737FFC046BD4608B080BD0038004029
:1045F000000400480080FFFFB0B582B000AF0200A9
:104600003960FB1D1A70FB1D1B787F2B32D92F4C94
:10461000FB1D1B781A000F231340083B99082B4AF7
:10462000FB1D1B7818000F230340083B9B08063333
:104630009B00D31804331B68FA1D12781000032264
:104640000240D200FF2090400200D2431A403B6853
:104650009B01FF201840FB1D1B781D0003232B40EE
:10466000DB00984003001A438B1D9B00E3180433C2
:104670001A6027E0164CFB1D1B785BB29B0814499F
:10468000FA1D127852B29208C03292005258F91DA7
:104690000978080003210140C900FF20884001007B
:1046A000C94311403A689201FF201040FA1D127868
:1046B000150003222A40D200904002000A43C03372
:1046C0009B001A51C046BD4602B0B0BD00ED00E0EF
:1046D00000E100E080B582B000AF78607B68013B0C
:1046E0000C4A934201D9012310E00B4B7A68013A3E
:1046F0005A6001235B4203211800FFF77DFF064B40
:1047000000229A60044B07221A6000231800BD465D
:1047100002B080BDFFFFFF0010E000E080B582B076
:1047200000AFFB1D00221A70254B254A126801219B
:104730000A431A60C046224B1B6802221340FAD07B
:104740001F4B1F4A12681F490A401A601C4B1C4A23
:10475000126804218A431A60194B8022D2005A60E1
:10476000194B11221A60164B154A52685A60144BA5
:10477000134A52685A60124B114A52685A60104BE1
:104780000F4A526803218A435A600D4B0C4A526803
:1047900002210A435A600AE0094B5B689A08FB1D34
:1047A0001A70FB1DFA1D127803210A401A70FB1DB6
:1047B0001B78022BF0D1C046BD4602B080BDC0467A
:1047C00000100240FFFFEFFF0020024080B500AF65
:1047D000002001F083FBC04601F09AFB031EFBD1D1
:1047E000064B064A126806490A401A60FA235B0122
:1047F0001800FFF76FFFC046BD4680BD00100240A5
:10480000FFFFFFFE80B586B000AF1723FB18002224
:104810001A7064233B613B1D1800FDF73BF817231A
:10482000FB183A1D12781A701723FB181B78002BFF
:104830001CD18023DB050021180001F079FD8023C5
:10484000DB050021180001F07FFD8023DB0500213E
:10485000180001F085FD284B0021180001F05CFDD7
:10486000254B0021180001F063FD41E03B1D9B79C1
:104870003B613B1D5B781A003B695343FB60FB685F
:104880001D4A1900100001F053FD3B1D9B781A00D2
:104890003B695343FB60FB68174A1900100001F0A5
:1048A0003BFD3B1DDB781A003B695343FB60FA6814
:1048B0008023DB051100180001F03AFD3B1D1B7938
:1048C0001A003B695343FB60FA688023DB05110043
:1048D000180001F039FD3B1D5B791A003B69534319
:1048E000FB60FA688023DB051100180001F038FD39
:1048F000C046BD4606B080BD0004004080B584B00F
:1049000000AF8023DB020121180001F08BFB0121A5
:10491000012001F0A7FB80235B050121180001F0B5
:10492000C1FB0C23FB1802221A800C23FB18022265
:104930009A700C23FB184822DA700C23FB181D4ACE
:104940001900100001F0EAF80121012001F09AFCA1
:104950003B0002221A603B0000221A713B000C222D
:104960005A713B0001229A713B00180001F056F881
:104970000823FB1805221A700823FB1800225A701E
:104980000823FB1801229A700823FB18180001F075
:104990004FFA094B084A126808490A401A60084B46
:1049A000074A126904210A431A61C046BD4604B091
:1049B00080BDC0460004004800700040FDFF0000BC
:1049C00000ED00E080B500AF074B180001F063F97F
:1049D00003001A00022313405A425341DBB25BB278
:1049E0001800BD4680BDC0460004004880B500AF39
:1049F000022001F085F80020FDF7CAF9C046BD4647
:104A000080BD000080B500AF2F4B9B8D9BB21A007C
:104A100004231340042B18D12B4B0421180001F060
:104A2000B4F92A4B1B885A1C91B2284A11801A00EB
:104A3000254B1B8A9BB2D9B2254B9954234B1B881B
:104A4000632B02D9214B00221A801F4B9B8D9BB2F6
:104A50001A0020231340202B32D11B4B2021180099
:104A600001F093F9184B9B8E9BB21A001023134050
:104A7000102B25D1174B1A78174B1B789A421FD24F
:104A80001149144B1B785A1CD0B2124A10701A00EC
:104A9000124B9B5C9BB20B820B4A5023D35A0D4B9B
:104AA0001A780D4B1B789A420AD10B4B00221A70D0
:104AB0008023DA009023DB051100180001F0F6F8DE
:104AC000C046BD4680BDC04600540040A409002039
:104AD000500A0020A6090020A3090020EC090020AC
:104AE00080B500AF154B1B78002B24D0144B1A68EF
:104AF000144B1B689A421ED2134B1A68114B1B6849
:104B00009A4218D20D4B1B78012B07D10F4B0F4A3D
:104B10001269FB210A401A6120BF0CE00B4B0B4AC3
:104B2000126904210A431A6130BF094B084A12680E
:104B300001210A431A60C046BD4680BDA709002076
:104B4000B40A00209C090020B409002000ED00E018
:104B50000010024080B500AF044B044A92688021E7
:104B600009040A439A60C046BD4680BD0010024059
:104B700080B500AF084B8021180001F097F872B69D
:104B8000064B1B785BB2DBB20133DBB25AB2034B8C
:104B90001A70C046BD4680BD00040048A809002028
:104BA00080B500AF0C4B1B785BB2DBB2013BDBB2D4
:104BB0005AB2094B1A70084B1B785BB2002B03DC0E
:104BC000054B00221A7062B6044B8021180001F0D8
:104BD0007CF8C046BD4680BDA809002000040048FE
:104BE00080B500AF00F0B0FB364B1B78022B08D12C
:104BF000354B180001F04FF803001A004023134012
:104C000029D1324B1B78002B25D0314B1B78002B40
:104C100021D1304B01220121180001F039FC2C4B2D
:104C20001B785A1CD1B22A4A11701A002A4B9B5C7D
:104C30009BB2284A1900100001F04EFC274B1B685C
:104C400019002748FEF75AFE03001A00254B1B687F
:104C5000D218254B1A601B4B1B78022B17D1234B04
:104C60001A68204B1B689A4211D2174B80211800FA
:104C700001F01CF8194B1B6819001948FEF73EFE9D
:104C800003001A00174B1B68D218184B1A60184BF8
:104C90001B78002B13D0164B1B780133DAB2144B60
:104CA0001A70134B1B78022B09D9FFF7CDF9104B63
:104CB00000221A700F4B07211800FFF7FBF9C046BE
:104CC000BD4680BDA709002000040048A3090020BC
:104CD000A609002000440040EC090020C004002088
:104CE000204E00009C090020B40A0020B4090020D6
:104CF000A90900209065000880B582B000AF7860F7
:104D00000A00FB1C1A70FB1C1B78082B05D80C4BE7
:104D100008211800FFF7CEF90FE07B6808331A006E
:104D2000FB1C1B78083BDBB21900100000F07EFB77
:104D3000044B07211800FFF7BDF9BD4602B080BD46
:104D400098650008A465000880B584B000AF78605D
:104D50000A00FB1C1A700023FB60FB1C1B780C2B49
:104D600005D81F4B08211800FFF7A4F934E00B23E6
:104D7000FB180C221A7016E0FA6813009B009B18AF
:104D80005B00FB600B23FB181B787A68D3181B7839
:104D9000303BFA68D318FB600B23FB181A780B23FF
:104DA000FB1801321A700B23FA18FB1C12781B78BF
:104DB0009A42E1D3FA68C8231B019A4202DDC82354
:104DC0001B01FB60FB689BB21800FCF75BFF054B07
:104DD00007211800FFF76EF9BD4604B080BDC0463C
:104DE00098650008A465000880B582B000AF020095
:104DF000FB1D1A70FB1D1B78392B04D8FB1D1B787B
:104E0000303BDBB20CE0FB1D1B78462B04D8FB1DAE
:104E10001B78373BDBB203E0FB1D1B78573BDBB253
:104E20001800BD4602B080BDB0B584B000AF786058
:104E30000A00FB1C1A707B68BB600F23FB18002262
:104E40001A70FB1C1B78082B05D8344B082118005E
:104E5000FFF730F95FE07B6808337B6017E00F23D2
:104E6000FA180F23FB181B78191C8900CB18DB18C4
:104E700013707B681A780F23FB181B78D318DAB2EB
:104E80000F23FB18303A1A707B6801337B607B6814
:104E90001B782C2BE3D17B6803337B600E23FB183C
:104EA00000221A7022E00E23FB181B78BA68D4186F
:104EB0007B681B781800FFF797FF03001B015DB2AA
:104EC0007B6801331B781800FFF78EFF03005BB28D
:104ED0002B435BB2DBB223707B6802337B600E2313
:104EE000FB181A780E23FB1801321A700E23FA18D9
:104EF0000F23FB1812781B789A42D4D30F23FB1888
:104F00001A78BB6811001800FDF7A4F9044B0721BB
:104F10001800FFF7CFF8BD4604B0B0BD9865000893
:104F2000A465000880B582B000AF78600A00FB1C61
:104F30001A70FB1C1B780B2B05D80E4B0821180090
:104F4000FFF7B8F812E07B680B337B607B681B7857
:104F5000302B03D10020FCF73FFA02E00120FCF7E0
:104F60003BFA054B07211800FFF7A4F8BD4602B035
:104F700080BDC04698650008A465000880B582B071
:104F800000AF78600A00FB1C1A70FB1C1B78062B14
:104F900005D0084B08211800FFF78CF806E0FCF755
:104FA0005DFC054B07211800FFF784F8BD4602B0F1
:104FB00080BDC04698650008A465000880B582B031
:104FC00000AF78600A00FB1C1A70FB1C1B78092BD1
:104FD00005D8124B08211800FFF76CF81AE07B681F
:104FE00009337B607B681B78312B03D10C4B01228A
:104FF0001A700AE07B681B78322B03D1084B02221F
:105000001A7002E0064B00221A70064B07211800A6
:10501000FFF750F8BD4602B080BDC0469865000855
:10502000A7090020A465000880B584B000AF7860AF
:105030000A00FB1C1A700023FB60FB1C1B78082B6A
:1050400005D81E4B08211800FFF734F833E00B2376
:10505000FB1808221A7016E0FA6813009B009B18D0
:105060005B00FB600B23FB181B787A68D3181B7856
:10507000303BFA68D318FB600B23FB181A780B231C
:10508000FB1801321A700B23FA18FB1C12781B78DC
:105090009A42E1D30A4B1A68FB689A4206D0FA6832
:1050A000074B1A60074B01221A7004E0064B0721D8
:1050B0001800FEF7FFFFBD4604B080BD98650008EC
:1050C000C0040020A9090020A465000880B584B0B0
:1050D00000AF786039603B681800FEF761FE02009F
:1050E0000E23FB181A700F23FB1800221A7016E00B
:1050F0000F23FB181B783A68D3181A780F23FB1874
:105100001B787968CB181B789A4201D000230FE0F6
:105110000F23FB181A780F23FB1801321A700F2384
:10512000FA180E23FB1812781B789A42E0D3012359
:105130001800BD4604B080BD80B582B000AF786075
:105140000A00FB1C1A70114B07211800FEF7B2FF72
:105150000F4B0B211800FEF7ADFF0E4B0821180076
:10516000FEF7A8FF00F0A8FB031E05D00A4B0221A2
:105170001800FEF79FFF04E0084B02211800FEF71D
:1051800099FFC046BD4602B080BDC046A465000878
:10519000AC650008B8650008C4650008C86500086B
:1051A00080B588B000AF78600A00FB1C1A70082335
:1051B000FB182C4A1A600433102200211800FEF755
:1051C0009DFD294B07211800FEF774FF274B0B218B
:1051D0001800FEF76FFF1F23FB1800221A7037E03C
:1051E0000823FA1803321F23FB18002159560B001D
:1051F0009B005B189B001E495B18043319001000CC
:10520000FEF7C6FD0823FB181800FEF7C9FD0200D3
:105210001E23FB181A701E23FB181B785BB2082292
:10522000BA180A21D1541E23FB181B780133DAB2B5
:105230000823FB1811001800FEF73CFF1F23FB1882
:105240001B785BB2DBB20133DAB21F23FB181A7092
:105250001F23FB181B78082BC2D9C046BD4608B0D7
:1052600080BDC04641542B00A4650008AC65000811
:10527000C404002080B584B000AF78600A00FB1C35
:105280001A700F23FB1800221A7026E00F23FB1858
:105290001A7813009B009B189B00164A9B181A1D36
:1052A0007B6811001800FFF711FF031E0ED00F23BB
:1052B000FB181A780F4913009B009B189B005B5842
:1052C000FA1C11787A681000984710E00F23FB1839
:1052D0001A780F23FB1801321A700F23FB181B7862
:1052E000082BD3D9044B08211800FEF7E3FEBD4676
:1052F00004B080BDC40400209865000880B582B069
:1053000000AF78600A00FB1C1A700D4A7B68110020
:105310001800FFF7DBFE031E05D10A4B0821180019
:10532000FEF7C8FE09E07B68DA1CFB1C1B78033B18
:10533000DBB219001000FFF79DFFBD4602B080BD33
:10534000CC6500089865000880B500AF4CE02B4B99
:105350001B785A1CD1B2294A11701A00284B1B889D
:105360001900284B595C284B9954244B1B78332B3C
:1053700002D9224B00221A70214B1B881A00214BA4
:105380009B5C0A2B06D01E4B1B881A001D4B9B5C96
:105390000D2B19D1194B1B78012B03D1174B002270
:1053A0001A7011E0154B1B78013B174A0021D154AC
:1053B000124B1B78013BDAB2134B11001800FFF7B8
:1053C0009DFF0E4B00221A700D4B1B8801339AB2C1
:1053D0000B4B1A800A4B1B8864211800FEF714FB44
:1053E0000B009AB2064B1A80084B1A88044B1B8894
:1053F0009A42ACD1C046BD4680BDC046A20900203D
:10540000A0090020500A0020B8090020A4090020AB
:1054100080B582B000AF78607B6818221A70024BAA
:105420001800BD4602B080BD7805002080B582B06E
:1054300000AF78600A00FB1C1A700C4B1822002188
:105440001800FEF75BFCFB1C1A787968074B180004
:10545000FEF712FCFB1C1A787B6811001800FCF7A1
:105460002FFCC046BD4602B080BDC0467805002076
:1054700080B500AF09231800BD4680BDB0B586B029
:1054800002AF05000C0010001900FB1D2A1C1A7049
:10549000BB1D221C1A703B1D021C1A80BB1C0A1C5F
:1054A0001A802023FB181A88A0239B019A4218D146
:1054B0003B1D1B88012B14D10C23FB1800221A70F2
:1054C0000C23FB1818225A700C23FA18FB1D1878AD
:1054D00002230093130006220121FCF713FFC046AC
:1054E0003BE02023FB181A88A0239B019A4215D188
:1054F0003B1D1B88072B11D80823FB18184A12885C
:105500001A800823FA18FB1D187802230093130051
:105510000F220721FCF7F6FEC0461EE02023FB18F1
:105520001A88A0239B019A420ED13B1D1B88102B89
:105530000AD80C4AFB1D1878102300931300192277
:105540001021FCF7DFFE08E03B1D1A88BB1D19780F
:10555000FB1D1B781800FCF75DFFBD4604B0B0BD15
:10556000D06500085069000890B583B000AF040012
:10557000080011003B60FB1D221C1A70BB1D021CA1
:105580001A703B1D0A1C1A803B1D1B88152B1DD051
:1055900003DC123B012B37D830E0182B34D13B68A9
:1055A00002331B781A043B6801331B781B02134338
:1055B0003A68127813431A001A4B1A60FB1D1B78C5
:1055C0001800FDF727FAFEF73FFD27E0164B0821EC
:1055D0001800FEF76FFD1823FB1801211800FEF7D5
:1055E00069FD124B01211800FEF764FD1823FB181A
:1055F0001A783B6811001800FEF75CFDFB1D1B7854
:105600001800FDF707FA09E03B1D1A88BB1D197841
:10561000FB1D1B781800FCF7FDFEC046C046BD46CA
:1056200003B090BDC0040020D4650008E065000808
:1056300090B585B000AF0400B960100019000E23CA
:10564000FB18221C1A800C23FB18021C1A80BB1D9D
:105650000A1C1A800E23FB181B88152B08D10C235B
:10566000FB181B88DAB2BB6811001800FEF722FD98
:10567000C046BD4605B090BD80B500AFC046BD4632
:1056800080BD0000B0B588B002AF04000800110072
:10569000FB1D221C1A703B1D021C1A80BB1D0A1C1C
:1056A0001A700F23FB181800FFF7B2FE03007B618E
:1056B0003B1D1B88043B152B00D991E09A004F4BF2
:1056C000D3181B689F464E4C3B1D1A88FB1D19784A
:1056D000BB1D18780A2300932300FCF7A1FE89E084
:1056E000FCF756FD0500FCF753FD03001800FEF71C
:1056F00057FB0300DBB23A1D1488FA1D1178BA1D5E
:10570000107800932B002200FCF78AFE72E0FCF771
:1057100043FD0500FCF740FD03001800FEF740FBC9
:105720000300DBB23A1D1488FA1D1178BA1D1078F7
:1057300000932B002200FCF773FE5BE0314C3B1D15
:105740001A88FB1D1978BB1D1878072300932300C6
:10575000FCF766FE4EE00C23FB1800221A700C23A7
:10576000FB1800225A700C23FC183B1D1A88FB1DE5
:105770001978BB1D1878022300932300FCF750FE14
:1057800038E0214B1B681B0CDAB21023FB181A708F
:105790001D4B1B681B0ADAB21023FB185A701A4BF8
:1057A0001B68DAB21023FB189A701023FC183B1DFB
:1057B0001A88FB1D1978BB1D18780323009323005A
:1057C000FCF72EFE16E0114C3B1D1A88FB1D1978C4
:1057D000BB1D1878082300932300FCF721FE09E085
:1057E0003B1D1A88FB1D1978BB1D1B781800FCF7A0
:1057F00011FEC046C046BD4606B0B0BD9069000867
:10580000E4650008F0650008C0040020F8650008A1
:10581000B0B582B000AF05000C0010001900FB1DF0
:105820002A1C1A703B1D221C1A80BB1D021C1A70F8
:10583000BB1C0A1C1A803B1D1A88FB1D1978BB1D56
:105840001B781800FCF7E6FDC046BD4602B0B0BDAF
:1058500090B585B000AF0400080011007B600E23F6
:10586000FB18221C1A800C23FB18021C1A800A2326
:10587000FB180A1C1A800A23FB181B880A4A934249
:105880000CD10E23FB181B88102B07D87B68102225
:105890001A803B6A19221A80012300E000231800B5
:1058A000BD4605B090BDC0469ECA000080B500AFA1
:1058B000C046BD4680BD000080B500AF024B1B78DE
:1058C0005BB21800BD4680BDAA09002080B582B039
:1058D00000AF0200FB1D1A700E4B1B78FA1D1278E8
:1058E0009A4212D00B4BFA1D12781A70094B1B7892
:1058F000002B05D0084B0C211800FEF7DBFB04E061
:10590000064B0F211800FEF7D5FBC046BD4602B07E
:1059100080BDC046AA09002004660008146600087D
:105920000B488546002103E00A4B5B584350043185
:1059300009480A4B42189A42F6D3094A02E000236A
:1059400013600432074B9A42F9D3FEF7C5FAFEE71B
:1059500000200020246A000800000020A405002088
:10596000A40500204C0B0020FEE7000080B582B0AB
:1059700000AFFB1D00221A70254B254A1268012139
:105980000A431A60C046224B1B6802221340FAD019
:105990001F4B1F4A12681F490A401A601C4B1C4AC1
:1059A000126804218A431A60194B8022D2005A607F
:1059B000194B11221A60164B154A52685A60144B43
:1059C000134A52685A60124B114A52685A60104B7F
:1059D0000F4A526803218A435A600D4B0C4A5268A1
:1059E00002210A435A600AE0094B5B689A08FB1DD2
:1059F0001A70FB1DFA1D127803210A401A70FB1D54
:105A00001B78022BF0D1C046BD4602B080BDC04617
:105A100000100240FFFFEFFF0020024080B584B07D
:105A200000AF78600023FB60344BFB607B689B79A0
:105A3000002B4FD0314A314B19687B681B68DB4320
:105A40000B4013602D4A2D4B59687B681B68DB4364
:105A50000B4053607B681B791A00FB689B18FB6046
:105A6000FB68FA6811687A6812680A431A60234A68
:105A7000224B99687B681B68DB430B4093601F4A8D
:105A80001E4BD9687B681B68DB430B40D3607B6887
:105A90005B79102B0ED1194A184B99687B681B68EB
:105AA0000B439360154A154BD9687B681B680B4301
:105AB000D3601FE0114BFB607B685B791A00FB68C9
:105AC0009B18FB60FB68FA6811687A6812680A43E1
:105AD0001A600FE0094BFB607B681B791A00FB68BA
